{
  "contractName": "Simplebank",
  "abi": [
    {
      "inputs": [],
      "stateMutability": "nonpayable",
      "type": "constructor"
    },
    {
      "inputs": [],
      "name": "numberOfFunders",
      "outputs": [
        {
          "internalType": "uint256",
          "name": "",
          "type": "uint256"
        }
      ],
      "stateMutability": "view",
      "type": "function",
      "constant": true
    },
    {
      "inputs": [],
      "name": "owner",
      "outputs": [
        {
          "internalType": "address",
          "name": "",
          "type": "address"
        }
      ],
      "stateMutability": "view",
      "type": "function",
      "constant": true
    },
    {
      "inputs": [
        {
          "internalType": "address",
          "name": "newOwner",
          "type": "address"
        }
      ],
      "name": "transferOwnership",
      "outputs": [],
      "stateMutability": "nonpayable",
      "type": "function"
    },
    {
      "inputs": [],
      "name": "addFunds",
      "outputs": [],
      "stateMutability": "payable",
      "type": "function",
      "payable": true
    },
    {
      "inputs": [],
      "name": "getAllFunders",
      "outputs": [
        {
          "internalType": "address[]",
          "name": "",
          "type": "address[]"
        }
      ],
      "stateMutability": "view",
      "type": "function",
      "constant": true
    },
    {
      "inputs": [
        {
          "internalType": "uint256",
          "name": "withdrawAmount",
          "type": "uint256"
        }
      ],
      "name": "withdraw",
      "outputs": [],
      "stateMutability": "nonpayable",
      "type": "function"
    },
    {
      "inputs": [],
      "name": "getAllFundersSum",
      "outputs": [
        {
          "internalType": "uint256[]",
          "name": "",
          "type": "uint256[]"
        }
      ],
      "stateMutability": "view",
      "type": "function",
      "constant": true
    }
  ],
  "bytecode": "0x608060405234801561001057600080fd5b5033600360006101000a81548173ffffffffffffffffffffffffffffffffffffffff021916908373ffffffffffffffffffffffffffffffffffffffff160217905550610c71806100616000396000f3fe6080604052600436106100705760003560e01c80638da5cb5b1161004e5780638da5cb5b146100f4578063a26759cb1461011f578063dc79a7fc14610129578063f2fde38b1461015457610070565b80632e1a7d4d146100755780636a7472fe1461009e5780636fbbb55d146100c9575b600080fd5b34801561008157600080fd5b5061009c60048036038101906100979190610757565b61017d565b005b3480156100aa57600080fd5b506100b3610269565b6040516100c09190610842565b60405180910390f35b3480156100d557600080fd5b506100de610366565b6040516100eb9190610954565b60405180910390f35b34801561010057600080fd5b5061010961045f565b6040516101169190610985565b60405180910390f35b610127610485565b005b34801561013557600080fd5b5061013e610642565b60405161014b91906109af565b60405180910390f35b34801561016057600080fd5b5061017b600480360381019061017691906109f6565b610648565b005b670de0b6b3a76400008110806101e05750600360009054906101000a900473ffffffffffffffffffffffffffffffffffffffff1673ffffffffffffffffffffffffffffffffffffffff163373ffffffffffffffffffffffffffffffffffffffff16145b61021f576040517f08c379a000000000000000000000000000000000000000000000000000000000815260040161021690610aa6565b60405180910390fd5b3373ffffffffffffffffffffffffffffffffffffffff166108fc829081150290604051600060405180830381858888f19350505050158015610265573d6000803e3d6000fd5b5050565b60606000600267ffffffffffffffff81111561028857610287610ac6565b5b6040519080825280602002602001820160405280156102b65781602001602082028036833780820191505090505b50905060006102c3610366565b905060005b600281101561035d57600460008383815181106102e8576102e7610af5565b5b602002602001015173ffffffffffffffffffffffffffffffffffffffff1673ffffffffffffffffffffffffffffffffffffffff1681526020019081526020016000205483828151811061033e5761033d610af5565b5b602002602001018181525050808061035590610b53565b9150506102c8565b50819250505090565b60606000805467ffffffffffffffff81111561038557610384610ac6565b5b6040519080825280602002602001820160405280156103b35781602001602082028036833780820191505090505b50905060005b600054811015610457576002600082815260200190815260200160002060009054906101000a900473ffffffffffffffffffffffffffffffffffffffff1682828151811061040a57610409610af5565b5b602002602001019073ffffffffffffffffffffffffffffffffffffffff16908173ffffffffffffffffffffffffffffffffffffffff1681525050808061044f90610b53565b9150506103b9565b508091505090565b600360009054906101000a900473ffffffffffffffffffffffffffffffffffffffff1681565b6000339050600160008273ffffffffffffffffffffffffffffffffffffffff1673ffffffffffffffffffffffffffffffffffffffff16815260200190815260200160002060009054906101000a900460ff166105e85760008060008154809291906104ef90610b53565b91905055905060018060008473ffffffffffffffffffffffffffffffffffffffff1673ffffffffffffffffffffffffffffffffffffffff16815260200190815260200160002060006101000a81548160ff021916908315150217905550816002600083815260200190815260200160002060006101000a81548173ffffffffffffffffffffffffffffffffffffffff021916908373ffffffffffffffffffffffffffffffffffffffff16021790555034600460003373ffffffffffffffffffffffffffffffffffffffff1673ffffffffffffffffffffffffffffffffffffffff168152602001908152602001600020819055505061063f565b34600460003373ffffffffffffffffffffffffffffffffffffffff1673ffffffffffffffffffffffffffffffffffffffff16815260200190815260200160002060008282546106379190610b9b565b925050819055505b50565b60005481565b600360009054906101000a900473ffffffffffffffffffffffffffffffffffffffff1673ffffffffffffffffffffffffffffffffffffffff163373ffffffffffffffffffffffffffffffffffffffff16146106d8576040517f08c379a00000000000000000000000000000000000000000000000000000000081526004016106cf90610c1b565b60405180910390fd5b80600360006101000a81548173ffffffffffffffffffffffffffffffffffffffff021916908373ffffffffffffffffffffffffffffffffffffffff16021790555050565b600080fd5b6000819050919050565b61073481610721565b811461073f57600080fd5b50565b6000813590506107518161072b565b92915050565b60006020828403121561076d5761076c61071c565b5b600061077b84828501610742565b91505092915050565b600081519050919050565b600082825260208201905092915050565b6000819050602082019050919050565b6107b981610721565b82525050565b60006107cb83836107b0565b60208301905092915050565b6000602082019050919050565b60006107ef82610784565b6107f9818561078f565b9350610804836107a0565b8060005b8381101561083557815161081c88826107bf565b9750610827836107d7565b925050600181019050610808565b5085935050505092915050565b6000602082019050818103600083015261085c81846107e4565b905092915050565b600081519050919050565b600082825260208201905092915050565b6000819050602082019050919050565b600073ffffffffffffffffffffffffffffffffffffffff82169050919050565b60006108bb82610890565b9050919050565b6108cb816108b0565b82525050565b60006108dd83836108c2565b60208301905092915050565b6000602082019050919050565b600061090182610864565b61090b818561086f565b935061091683610880565b8060005b8381101561094757815161092e88826108d1565b9750610939836108e9565b92505060018101905061091a565b5085935050505092915050565b6000602082019050818103600083015261096e81846108f6565b905092915050565b61097f816108b0565b82525050565b600060208201905061099a6000830184610976565b92915050565b6109a981610721565b82525050565b60006020820190506109c460008301846109a0565b92915050565b6109d3816108b0565b81146109de57600080fd5b50565b6000813590506109f0816109ca565b92915050565b600060208284031215610a0c57610a0b61071c565b5b6000610a1a848285016109e1565b91505092915050565b600082825260208201905092915050565b7f596f752063616e2774207769746864726177206d6f7265207468616e2031206560008201527f7468657200000000000000000000000000000000000000000000000000000000602082015250565b6000610a90602483610a23565b9150610a9b82610a34565b604082019050919050565b60006020820190508181036000830152610abf81610a83565b9050919050565b7f4e487b7100000000000000000000000000000000000000000000000000000000600052604160045260246000fd5b7f4e487b7100000000000000000000000000000000000000000000000000000000600052603260045260246000fd5b7f4e487b7100000000000000000000000000000000000000000000000000000000600052601160045260246000fd5b6000610b5e82610721565b91507fffffffffffffffffffffffffffffffffffffffffffffffffffffffffffffffff8203610b9057610b8f610b24565b5b600182019050919050565b6000610ba682610721565b9150610bb183610721565b9250828201905080821115610bc957610bc8610b24565b5b92915050565b7f4f6e6c7920746865206f776e65722063616e20646f2074686174000000000000600082015250565b6000610c05601a83610a23565b9150610c1082610bcf565b602082019050919050565b60006020820190508181036000830152610c3481610bf8565b905091905056fea264697066735822122088ff64e094d5c21a10a883e6cd662459f4ec8c1b9218cada25f183d7b4828a8f64736f6c63430008110033",
  "immutableReferences": {},
  "source": "// SPDX-License-Identifier: MIT\r\npragma solidity >=0.4.22 <0.9.0;\r\n \r\ncontract Simplebank {\r\n    uint public numberOfFunders;\r\n    mapping(address => bool) private funders;\r\n    mapping(uint => address) private lutFunders;\r\n    address public owner;\r\n    mapping(address => uint) private lutSumOfFunders;\r\n\r\n    constructor (){\r\n        owner = msg.sender;\r\n    }\r\n\r\n    modifier onlyOwner(){\r\n        require(msg.sender == owner, \"Only the owner can do that\");\r\n        _;\r\n    }\r\n\r\n    function transferOwnership(address newOwner) external onlyOwner{\r\n        owner = newOwner;\r\n    }\r\n\r\n    function addFunds() external payable{\r\n        address funder = msg.sender;\r\n        if(!funders[funder]){\r\n            uint index = numberOfFunders++;\r\n            funders[funder] = true;\r\n            lutFunders[index] = funder;\r\n            lutSumOfFunders[msg.sender] = msg.value;\r\n        }\r\n        else{\r\n        lutSumOfFunders[msg.sender] += msg.value;\r\n        }\r\n        \r\n    }\r\n\r\n    function getAllFunders() public view returns(address[] memory) {\r\n        address[] memory _funders = new address[](numberOfFunders);\r\n        for(uint i=0; i<numberOfFunders; i++){\r\n            _funders[i]=lutFunders[i];\r\n        }\r\n        return _funders;\r\n    }\r\n\r\n    function withdraw(uint withdrawAmount) external{\r\n        require(withdrawAmount < 1000000000000000000 || msg.sender == owner, \"You can't withdraw more than 1 ether\");\r\n        payable (msg.sender).transfer(withdrawAmount);\r\n    }\r\n    \r\n    function getAllFundersSum() external view returns(uint[] memory) {\r\n        uint[] memory _fundersSum = new uint[](2);\r\n        address[] memory fundersAddress = getAllFunders();\r\n        for(uint i=0; i<2; i++){\r\n            _fundersSum[i]= lutSumOfFunders[fundersAddress[i]];\r\n        }\r\n        return _fundersSum;\r\n    }\r\n    \r\n}\r\n\r\n// truffle migrate --reset\r\n// truffle console\r\n// const instance = await Simplebank.deployed()\r\n// instance.addFunds({value:\"500000000000000000\", from:accounts[0]})\r\n// instance.addFunds({value:\"500000000000000000\", from:accounts[1]})\r\n// const funds = instance.funds()\r\n// instance.getAllFunders()\r\n// instance.withdraw(\"1000000000000000000\", {from: accounts[1]})\r\n// instance.transferOwnership(\"0x2f2568A97d71D36636f638a8d2Effb3987f0799E\")\r\n// instance.getAllFundersSum()",
  "sourcePath": "C:\\Users\\Almog Yosef Zamir\\Desktop\\  \\Codes Folder\\web3test\\contracts\\Simplebank.sol",
  "compiler": {
    "name": "solc",
    "version": "0.8.17+commit.8df45f5f.Emscripten.clang"
  },
  "schemaVersion": "3.4.11",
  "updatedAt": "2023-01-17T11:03:54.873Z",
  "networkType": "ethereum",
  "devdoc": {
    "kind": "dev",
    "methods": {},
    "version": 1
  },
  "userdoc": {
    "kind": "user",
    "methods": {},
    "version": 1
  }
}